{
  "contractName": "SupplyChain",
  "abi": [
    {
      "anonymous": false,
      "inputs": [
        {
          "indexed": false,
          "internalType": "uint32",
          "name": "productId",
          "type": "uint32"
        }
      ],
      "name": "Transfer",
      "type": "event"
    },
    {
      "constant": true,
      "inputs": [],
      "name": "p_id",
      "outputs": [
        {
          "internalType": "uint32",
          "name": "",
          "type": "uint32"
        }
      ],
      "payable": false,
      "stateMutability": "view",
      "type": "function"
    },
    {
      "constant": true,
      "inputs": [
        {
          "internalType": "uint32",
          "name": "",
          "type": "uint32"
        }
      ],
      "name": "participants",
      "outputs": [
        {
          "internalType": "string",
          "name": "userName",
          "type": "string"
        },
        {
          "internalType": "string",
          "name": "password",
          "type": "string"
        },
        {
          "internalType": "string",
          "name": "participantType",
          "type": "string"
        },
        {
          "internalType": "address",
          "name": "participantAddress",
          "type": "address"
        }
      ],
      "payable": false,
      "stateMutability": "view",
      "type": "function"
    },
    {
      "constant": true,
      "inputs": [
        {
          "internalType": "uint32",
          "name": "",
          "type": "uint32"
        },
        {
          "internalType": "uint256",
          "name": "",
          "type": "uint256"
        }
      ],
      "name": "productTrack",
      "outputs": [
        {
          "internalType": "uint32",
          "name": "",
          "type": "uint32"
        }
      ],
      "payable": false,
      "stateMutability": "view",
      "type": "function"
    },
    {
      "constant": true,
      "inputs": [
        {
          "internalType": "uint32",
          "name": "",
          "type": "uint32"
        }
      ],
      "name": "products",
      "outputs": [
        {
          "internalType": "string",
          "name": "modelNumber",
          "type": "string"
        },
        {
          "internalType": "string",
          "name": "partNumber",
          "type": "string"
        },
        {
          "internalType": "string",
          "name": "serialNumber",
          "type": "string"
        },
        {
          "internalType": "address",
          "name": "productOnwer",
          "type": "address"
        },
        {
          "internalType": "uint32",
          "name": "cost",
          "type": "uint32"
        },
        {
          "internalType": "uint32",
          "name": "mfgTimeStamp",
          "type": "uint32"
        }
      ],
      "payable": false,
      "stateMutability": "view",
      "type": "function"
    },
    {
      "constant": true,
      "inputs": [],
      "name": "r_id",
      "outputs": [
        {
          "internalType": "uint32",
          "name": "",
          "type": "uint32"
        }
      ],
      "payable": false,
      "stateMutability": "view",
      "type": "function"
    },
    {
      "constant": true,
      "inputs": [
        {
          "internalType": "uint32",
          "name": "",
          "type": "uint32"
        }
      ],
      "name": "registrations",
      "outputs": [
        {
          "internalType": "uint32",
          "name": "productId",
          "type": "uint32"
        },
        {
          "internalType": "uint32",
          "name": "ownerId",
          "type": "uint32"
        },
        {
          "internalType": "uint32",
          "name": "trxTimeStamp",
          "type": "uint32"
        },
        {
          "internalType": "address",
          "name": "productOwner",
          "type": "address"
        }
      ],
      "payable": false,
      "stateMutability": "view",
      "type": "function"
    },
    {
      "constant": true,
      "inputs": [],
      "name": "u_id",
      "outputs": [
        {
          "internalType": "uint32",
          "name": "",
          "type": "uint32"
        }
      ],
      "payable": false,
      "stateMutability": "view",
      "type": "function"
    },
    {
      "constant": true,
      "inputs": [
        {
          "internalType": "uint32",
          "name": "_regId",
          "type": "uint32"
        }
      ],
      "name": "getRegistrationDetails",
      "outputs": [
        {
          "internalType": "uint32",
          "name": "",
          "type": "uint32"
        },
        {
          "internalType": "uint32",
          "name": "",
          "type": "uint32"
        },
        {
          "internalType": "address",
          "name": "",
          "type": "address"
        },
        {
          "internalType": "uint32",
          "name": "",
          "type": "uint32"
        }
      ],
      "payable": false,
      "stateMutability": "view",
      "type": "function"
    },
    {
      "constant": true,
      "inputs": [
        {
          "internalType": "uint32",
          "name": "_prodId",
          "type": "uint32"
        }
      ],
      "name": "getProductTrack",
      "outputs": [
        {
          "internalType": "uint32[]",
          "name": "",
          "type": "uint32[]"
        }
      ],
      "payable": false,
      "stateMutability": "view",
      "type": "function"
    },
    {
      "constant": false,
      "inputs": [
        {
          "internalType": "uint32",
          "name": "_user2Id",
          "type": "uint32"
        },
        {
          "internalType": "uint32",
          "name": "_prodId",
          "type": "uint32"
        }
      ],
      "name": "transferToOwner",
      "outputs": [
        {
          "internalType": "bool",
          "name": "",
          "type": "bool"
        }
      ],
      "payable": false,
      "stateMutability": "nonpayable",
      "type": "function"
    },
    {
      "constant": false,
      "inputs": [
        {
          "internalType": "string",
          "name": "_name",
          "type": "string"
        },
        {
          "internalType": "string",
          "name": "_pass",
          "type": "string"
        },
        {
          "internalType": "address",
          "name": "_pAdd",
          "type": "address"
        },
        {
          "internalType": "string",
          "name": "_pType",
          "type": "string"
        }
      ],
      "name": "createParticipants",
      "outputs": [
        {
          "internalType": "uint32",
          "name": "",
          "type": "uint32"
        }
      ],
      "payable": false,
      "stateMutability": "nonpayable",
      "type": "function"
    },
    {
      "constant": true,
      "inputs": [
        {
          "internalType": "uint32",
          "name": "_p_id",
          "type": "uint32"
        }
      ],
      "name": "getParticipantsDetails",
      "outputs": [
        {
          "internalType": "string",
          "name": "",
          "type": "string"
        },
        {
          "internalType": "address",
          "name": "",
          "type": "address"
        },
        {
          "internalType": "string",
          "name": "",
          "type": "string"
        }
      ],
      "payable": false,
      "stateMutability": "view",
      "type": "function"
    },
    {
      "constant": false,
      "inputs": [
        {
          "internalType": "uint32",
          "name": "_ownerId",
          "type": "uint32"
        },
        {
          "internalType": "string",
          "name": "_modelNumber",
          "type": "string"
        },
        {
          "internalType": "string",
          "name": "_partNumber",
          "type": "string"
        },
        {
          "internalType": "string",
          "name": "_serialNumber",
          "type": "string"
        },
        {
          "internalType": "uint32",
          "name": "_productCost",
          "type": "uint32"
        }
      ],
      "name": "createProduct",
      "outputs": [
        {
          "internalType": "uint32",
          "name": "",
          "type": "uint32"
        }
      ],
      "payable": false,
      "stateMutability": "nonpayable",
      "type": "function"
    },
    {
      "constant": true,
      "inputs": [
        {
          "internalType": "uint32",
          "name": "_productId",
          "type": "uint32"
        }
      ],
      "name": "getProductDetails",
      "outputs": [
        {
          "internalType": "string",
          "name": "",
          "type": "string"
        },
        {
          "internalType": "string",
          "name": "",
          "type": "string"
        },
        {
          "internalType": "string",
          "name": "",
          "type": "string"
        },
        {
          "internalType": "uint32",
          "name": "",
          "type": "uint32"
        },
        {
          "internalType": "address",
          "name": "",
          "type": "address"
        },
        {
          "internalType": "uint32",
          "name": "",
          "type": "uint32"
        }
      ],
      "payable": false,
      "stateMutability": "view",
      "type": "function"
    }
  ],
  "bytecode": "0x608060405260008060006101000a81548163ffffffff021916908363ffffffff16021790555060008060046101000a81548163ffffffff021916908363ffffffff16021790555060008060086101000a81548163ffffffff021916908363ffffffff16021790555034801561007357600080fd5b5061260a806100836000396000f3fe608060405234801561001057600080fd5b50600436106100ea5760003560e01c806391acc19a1161008c578063b9d93d5f11610066578063b9d93d5f14610a3e578063bf712fd614610aeb578063e9f06d2b14610cc9578063f79e547b14610cf3576100ea565b806391acc19a1461092f5780639dfb56ac1461098b578063a8997d2e146109b5576100ea565b80632a2f3214116100c85780632a2f32141461035557806372a6c4151461057e5780637d0a9ac9146106ca57806383a32c5514610882576100ea565b8063043ba46a146100ef5780631a0748021461011957806328d5b69a14610177575b600080fd5b6100f7610f1c565b604051808263ffffffff1663ffffffff16815260200191505060405180910390f35b6101556004803603604081101561012f57600080fd5b81019080803563ffffffff16906020019092919080359060200190929190505050610f31565b604051808263ffffffff1663ffffffff16815260200191505060405180910390f35b6101a96004803603602081101561018d57600080fd5b81019080803563ffffffff169060200190929190505050610f77565b604051808060200180602001806020018763ffffffff1663ffffffff1681526020018673ffffffffffffffffffffffffffffffffffffffff1673ffffffffffffffffffffffffffffffffffffffff1681526020018563ffffffff1663ffffffff16815260200184810384528a818151815260200191508051906020019080838360005b8381101561024757808201518184015260208101905061022c565b50505050905090810190601f1680156102745780820380516001836020036101000a031916815260200191505b50848103835289818151815260200191508051906020019080838360005b838110156102ad578082015181840152602081019050610292565b50505050905090810190601f1680156102da5780820380516001836020036101000a031916815260200191505b50848103825288818151815260200191508051906020019080838360005b838110156103135780820151818401526020810190506102f8565b50505050905090810190601f1680156103405780820380516001836020036101000a031916815260200191505b50995050505050505050505060405180910390f35b61055c6004803603608081101561036b57600080fd5b810190808035906020019064010000000081111561038857600080fd5b82018360208201111561039a57600080fd5b803590602001918460018302840111640100000000831117156103bc57600080fd5b91908080601f016020809104026020016040519081016040528093929190818152602001838380828437600081840152601f19601f8201169050808301925050505050505091929192908035906020019064010000000081111561041f57600080fd5b82018360208201111561043157600080fd5b8035906020019184600183028401116401000000008311171561045357600080fd5b91908080601f016020809104026020016040519081016040528093929190818152602001838380828437600081840152601f19601f820116905080830192505050505050509192919290803573ffffffffffffffffffffffffffffffffffffffff169060200190929190803590602001906401000000008111156104d657600080fd5b8201836020820111156104e857600080fd5b8035906020019184600183028401116401000000008311171561050a57600080fd5b91908080601f016020809104026020016040519081016040528093929190818152602001838380828437600081840152601f19601f820116905080830192505050505050509192919290505050611279565b604051808263ffffffff1663ffffffff16815260200191505060405180910390f35b6105b06004803603602081101561059457600080fd5b81019080803563ffffffff1690602001909291905050506113bb565b60405180806020018473ffffffffffffffffffffffffffffffffffffffff1673ffffffffffffffffffffffffffffffffffffffff16815260200180602001838103835286818151815260200191508051906020019080838360005b8381101561062657808201518184015260208101905061060b565b50505050905090810190601f1680156106535780820380516001836020036101000a031916815260200191505b50838103825284818151815260200191508051906020019080838360005b8381101561068c578082015181840152602081019050610671565b50505050905090810190601f1680156106b95780820380516001836020036101000a031916815260200191505b509550505050505060405180910390f35b6106fc600480360360208110156106e057600080fd5b81019080803563ffffffff16906020019092919050505061158d565b604051808060200180602001806020018573ffffffffffffffffffffffffffffffffffffffff1673ffffffffffffffffffffffffffffffffffffffff168152602001848103845288818151815260200191508051906020019080838360005b8381101561077657808201518184015260208101905061075b565b50505050905090810190601f1680156107a35780820380516001836020036101000a031916815260200191505b50848103835287818151815260200191508051906020019080838360005b838110156107dc5780820151818401526020810190506107c1565b50505050905090810190601f1680156108095780820380516001836020036101000a031916815260200191505b50848103825286818151815260200191508051906020019080838360005b83811015610842578082015181840152602081019050610827565b50505050905090810190601f16801561086f5780820380516001836020036101000a031916815260200191505b5097505050505050505060405180910390f35b6108b46004803603602081101561089857600080fd5b81019080803563ffffffff1690602001909291905050506117a5565b604051808563ffffffff1663ffffffff1681526020018463ffffffff1663ffffffff1681526020018363ffffffff1663ffffffff1681526020018273ffffffffffffffffffffffffffffffffffffffff1673ffffffffffffffffffffffffffffffffffffffff16815260200194505050505060405180910390f35b6109716004803603604081101561094557600080fd5b81019080803563ffffffff169060200190929190803563ffffffff169060200190929190505050611825565b604051808215151515815260200191505060405180910390f35b610993611d9d565b604051808263ffffffff1663ffffffff16815260200191505060405180910390f35b6109e7600480360360208110156109cb57600080fd5b81019080803563ffffffff169060200190929190505050611db3565b6040518080602001828103825283818151815260200191508051906020019060200280838360005b83811015610a2a578082015181840152602081019050610a0f565b505050509050019250505060405180910390f35b610a7060048036036020811015610a5457600080fd5b81019080803563ffffffff169060200190929190505050611e56565b604051808563ffffffff1663ffffffff1681526020018463ffffffff1663ffffffff1681526020018373ffffffffffffffffffffffffffffffffffffffff1673ffffffffffffffffffffffffffffffffffffffff1681526020018263ffffffff1663ffffffff16815260200194505050505060405180910390f35b610b1d60048036036020811015610b0157600080fd5b81019080803563ffffffff169060200190929190505050611f7c565b604051808060200180602001806020018773ffffffffffffffffffffffffffffffffffffffff1673ffffffffffffffffffffffffffffffffffffffff1681526020018663ffffffff1663ffffffff1681526020018563ffffffff1663ffffffff16815260200184810384528a818151815260200191508051906020019080838360005b83811015610bbb578082015181840152602081019050610ba0565b50505050905090810190601f168015610be85780820380516001836020036101000a031916815260200191505b50848103835289818151815260200191508051906020019080838360005b83811015610c21578082015181840152602081019050610c06565b50505050905090810190601f168015610c4e5780820380516001836020036101000a031916815260200191505b50848103825288818151815260200191508051906020019080838360005b83811015610c87578082015181840152602081019050610c6c565b50505050905090810190601f168015610cb45780820380516001836020036101000a031916815260200191505b50995050505050505050505060405180910390f35b610cd16121c0565b604051808263ffffffff1663ffffffff16815260200191505060405180910390f35b610efa600480360360a0811015610d0957600080fd5b81019080803563ffffffff16906020019092919080359060200190640100000000811115610d3657600080fd5b820183602082011115610d4857600080fd5b80359060200191846001830284011164010000000083111715610d6a57600080fd5b91908080601f016020809104026020016040519081016040528093929190818152602001838380828437600081840152601f19601f82011690508083019250505050505050919291929080359060200190640100000000811115610dcd57600080fd5b820183602082011115610ddf57600080fd5b80359060200191846001830284011164010000000083111715610e0157600080fd5b91908080601f016020809104026020016040519081016040528093929190818152602001838380828437600081840152601f19601f82011690508083019250505050505050919291929080359060200190640100000000811115610e6457600080fd5b820183602082011115610e7657600080fd5b80359060200191846001830284011164010000000083111715610e9857600080fd5b91908080601f016020809104026020016040519081016040528093929190818152602001838380828437600081840152601f19601f820116905080830192505050505050509192919290803563ffffffff1690602001909291905050506121d6565b604051808263ffffffff1663ffffffff16815260200191505060405180910390f35b6000809054906101000a900463ffffffff1681565b60046020528160005260406000208181548110610f4a57fe5b9060005260206000209060089182820401919006600402915091509054906101000a900463ffffffff1681565b60608060606000806000600160008863ffffffff1663ffffffff168152602001908152602001600020600001600160008963ffffffff1663ffffffff168152602001908152602001600020600101600160008a63ffffffff1663ffffffff168152602001908152602001600020600201600160008b63ffffffff1663ffffffff16815260200190815260200160002060030160149054906101000a900463ffffffff16600160008c63ffffffff1663ffffffff16815260200190815260200160002060030160009054906101000a900473ffffffffffffffffffffffffffffffffffffffff16600160008d63ffffffff1663ffffffff16815260200190815260200160002060030160189054906101000a900463ffffffff16858054600181600116156101000203166002900480601f0160208091040260200160405190810160405280929190818152602001828054600181600116156101000203166002900480156111255780601f106110fa57610100808354040283529160200191611125565b820191906000526020600020905b81548152906001019060200180831161110857829003601f168201915b50505050509550848054600181600116156101000203166002900480601f0160208091040260200160405190810160405280929190818152602001828054600181600116156101000203166002900480156111c15780601f10611196576101008083540402835291602001916111c1565b820191906000526020600020905b8154815290600101906020018083116111a457829003601f168201915b50505050509450838054600181600116156101000203166002900480601f01602080910402602001604051908101604052809291908181526020018280546001816001161561010002031660029004801561125d5780601f106112325761010080835404028352916020019161125d565b820191906000526020600020905b81548152906001019060200180831161124057829003601f168201915b5050505050935095509550955095509550955091939550919395565b6000806000600481819054906101000a900463ffffffff168092919060010191906101000a81548163ffffffff021916908363ffffffff160217905550905060405180608001604052808781526020018681526020018481526020018573ffffffffffffffffffffffffffffffffffffffff16815250600260008363ffffffff1663ffffffff168152602001908152602001600020600082015181600001908051906020019061132a9291906124a2565b5060208201518160010190805190602001906113479291906124a2565b5060408201518160020190805190602001906113649291906124a2565b5060608201518160030160006101000a81548173ffffffffffffffffffffffffffffffffffffffff021916908373ffffffffffffffffffffffffffffffffffffffff16021790555090505080915050949350505050565b606060006060600260008563ffffffff1663ffffffff168152602001908152602001600020600001600260008663ffffffff1663ffffffff16815260200190815260200160002060030160009054906101000a900473ffffffffffffffffffffffffffffffffffffffff16600260008763ffffffff1663ffffffff168152602001908152602001600020600201828054600181600116156101000203166002900480601f0160208091040260200160405190810160405280929190818152602001828054600181600116156101000203166002900480156114dd5780601f106114b2576101008083540402835291602001916114dd565b820191906000526020600020905b8154815290600101906020018083116114c057829003601f168201915b50505050509250808054600181600116156101000203166002900480601f0160208091040260200160405190810160405280929190818152602001828054600181600116156101000203166002900480156115795780601f1061154e57610100808354040283529160200191611579565b820191906000526020600020905b81548152906001019060200180831161155c57829003601f168201915b505050505090509250925092509193909250565b6002602052806000526040600020600091509050806000018054600181600116156101000203166002900480601f0160208091040260200160405190810160405280929190818152602001828054600181600116156101000203166002900480156116395780601f1061160e57610100808354040283529160200191611639565b820191906000526020600020905b81548152906001019060200180831161161c57829003601f168201915b505050505090806001018054600181600116156101000203166002900480601f0160208091040260200160405190810160405280929190818152602001828054600181600116156101000203166002900480156116d75780601f106116ac576101008083540402835291602001916116d7565b820191906000526020600020905b8154815290600101906020018083116116ba57829003601f168201915b505050505090806002018054600181600116156101000203166002900480601f0160208091040260200160405190810160405280929190818152602001828054600181600116156101000203166002900480156117755780601f1061174a57610100808354040283529160200191611775565b820191906000526020600020905b81548152906001019060200180831161175857829003601f168201915b5050505050908060030160009054906101000a900473ffffffffffffffffffffffffffffffffffffffff16905084565b60036020528060005260406000206000915090508060000160009054906101000a900463ffffffff16908060000160049054906101000a900463ffffffff16908060000160089054906101000a900463ffffffff169080600001600c9054906101000a900473ffffffffffffffffffffffffffffffffffffffff16905084565b600081600160008263ffffffff1663ffffffff16815260200190815260200160002060030160009054906101000a900473ffffffffffffffffffffffffffffffffffffffff1673ffffffffffffffffffffffffffffffffffffffff163373ffffffffffffffffffffffffffffffffffffffff16146118a257600080fd5b6118aa612522565b600260008663ffffffff1663ffffffff168152602001908152602001600020604051806080016040529081600082018054600181600116156101000203166002900480601f01602080910402602001604051908101604052809291908181526020018280546001816001161561010002031660029004801561196d5780601f106119425761010080835404028352916020019161196d565b820191906000526020600020905b81548152906001019060200180831161195057829003601f168201915b50505050508152602001600182018054600181600116156101000203166002900480601f016020809104026020016040519081016040528092919081815260200182805460018160011615610100020316600290048015611a0f5780601f106119e457610100808354040283529160200191611a0f565b820191906000526020600020905b8154815290600101906020018083116119f257829003601f168201915b50505050508152602001600282018054600181600116156101000203166002900480601f016020809104026020016040519081016040528092919081815260200182805460018160011615610100020316600290048015611ab15780601f10611a8657610100808354040283529160200191611ab1565b820191906000526020600020905b815481529060010190602001808311611a9457829003601f168201915b505050505081526020016003820160009054906101000a900473ffffffffffffffffffffffffffffffffffffffff1673ffffffffffffffffffffffffffffffffffffffff1673ffffffffffffffffffffffffffffffffffffffff16815250509050600080600881819054906101000a900463ffffffff168092919060010191906101000a81548163ffffffff021916908363ffffffff160217905550905060405180608001604052808663ffffffff1681526020018763ffffffff1681526020014263ffffffff168152602001836060015173ffffffffffffffffffffffffffffffffffffffff16815250600360008363ffffffff1663ffffffff16815260200190815260200160002060008201518160000160006101000a81548163ffffffff021916908363ffffffff16021790555060208201518160000160046101000a81548163ffffffff021916908363ffffffff16021790555060408201518160000160086101000a81548163ffffffff021916908363ffffffff160217905550606082015181600001600c6101000a81548173ffffffffffffffffffffffffffffffffffffffff021916908373ffffffffffffffffffffffffffffffffffffffff1602179055509050508160600151600160008763ffffffff1663ffffffff16815260200190815260200160002060030160006101000a81548173ffffffffffffffffffffffffffffffffffffffff021916908373ffffffffffffffffffffffffffffffffffffffff160217905550600460008663ffffffff1663ffffffff16815260200190815260200160002081908060018154018082558091505090600182039060005260206000209060089182820401919006600402909192909190916101000a81548163ffffffff021916908363ffffffff160217905550507f4a7c2ed8675655246e11580786ba8a73e92e426d177368a8697ead49925146c285604051808263ffffffff1663ffffffff16815260200191505060405180910390a16001935050505092915050565b600060089054906101000a900463ffffffff1681565b6060600460008363ffffffff1663ffffffff168152602001908152602001600020805480602002602001604051908101604052809291908181526020018280548015611e4a57602002820191906000526020600020906000905b82829054906101000a900463ffffffff1663ffffffff1681526020019060040190602082600301049283019260010382029150808411611e0d5790505b50505050509050919050565b600080600080611e64612560565b600360008763ffffffff1663ffffffff1681526020019081526020016000206040518060800160405290816000820160009054906101000a900463ffffffff1663ffffffff1663ffffffff1681526020016000820160049054906101000a900463ffffffff1663ffffffff1663ffffffff1681526020016000820160089054906101000a900463ffffffff1663ffffffff1663ffffffff16815260200160008201600c9054906101000a900473ffffffffffffffffffffffffffffffffffffffff1673ffffffffffffffffffffffffffffffffffffffff1673ffffffffffffffffffffffffffffffffffffffff1681525050905080600001518160200151826060015183604001519450945094509450509193509193565b6001602052806000526040600020600091509050806000018054600181600116156101000203166002900480601f0160208091040260200160405190810160405280929190818152602001828054600181600116156101000203166002900480156120285780601f10611ffd57610100808354040283529160200191612028565b820191906000526020600020905b81548152906001019060200180831161200b57829003601f168201915b505050505090806001018054600181600116156101000203166002900480601f0160208091040260200160405190810160405280929190818152602001828054600181600116156101000203166002900480156120c65780601f1061209b576101008083540402835291602001916120c6565b820191906000526020600020905b8154815290600101906020018083116120a957829003601f168201915b505050505090806002018054600181600116156101000203166002900480601f0160208091040260200160405190810160405280929190818152602001828054600181600116156101000203166002900480156121645780601f1061213957610100808354040283529160200191612164565b820191906000526020600020905b81548152906001019060200180831161214757829003601f168201915b5050505050908060030160009054906101000a900473ffffffffffffffffffffffffffffffffffffffff16908060030160149054906101000a900463ffffffff16908060030160189054906101000a900463ffffffff16905086565b600060049054906101000a900463ffffffff1681565b600060405180807f4d616e7566616374757265720000000000000000000000000000000000000000815250600c0190506040518091039020600260008863ffffffff1663ffffffff168152602001908152602001600020600201604051602001808280546001816001161561010002031660029004801561228e5780601f1061226c57610100808354040283529182019161228e565b820191906000526020600020905b81548152906001019060200180831161227a575b505091505060405160208183030381529060405280519060200120141561249457600080600081819054906101000a900463ffffffff168092919060010191906101000a81548163ffffffff021916908363ffffffff16021790555090506040518060c00160405280878152602001868152602001858152602001600260008a63ffffffff1663ffffffff16815260200190815260200160002060030160009054906101000a900473ffffffffffffffffffffffffffffffffffffffff1673ffffffffffffffffffffffffffffffffffffffff1681526020018463ffffffff1681526020014263ffffffff16815250600160008363ffffffff1663ffffffff16815260200190815260200160002060008201518160000190805190602001906123b89291906124a2565b5060208201518160010190805190602001906123d59291906124a2565b5060408201518160020190805190602001906123f29291906124a2565b5060608201518160030160006101000a81548173ffffffffffffffffffffffffffffffffffffffff021916908373ffffffffffffffffffffffffffffffffffffffff16021790555060808201518160030160146101000a81548163ffffffff021916908363ffffffff16021790555060a08201518160030160186101000a81548163ffffffff021916908363ffffffff16021790555090505080915050612499565b600090505b95945050505050565b828054600181600116156101000203166002900490600052602060002090601f016020900481019282601f106124e357805160ff1916838001178555612511565b82800160010185558215612511579182015b828111156125105782518255916020019190600101906124f5565b5b50905061251e91906125b0565b5090565b6040518060800160405280606081526020016060815260200160608152602001600073ffffffffffffffffffffffffffffffffffffffff1681525090565b6040518060800160405280600063ffffffff168152602001600063ffffffff168152602001600063ffffffff168152602001600073ffffffffffffffffffffffffffffffffffffffff1681525090565b6125d291905b808211156125ce5760008160009055506001016125b6565b5090565b9056fea265627a7a72315820ac4c5f8c4442f42c9a08104e083b3aec2b1288ff616fdeecde9f5aaf3aa0186764736f6c63430005100032",
  "source": "pragma solidity ^0.5.0;\r\n\r\ncontract SupplyChain {\r\n\r\n  uint32 public p_id = 0;   // Product ID\r\n  uint32 public u_id = 0;   // Participant ID\r\n  uint32 public r_id = 0;   // Registration ID\r\n\r\n  struct Product {\r\n    string modelNumber;\r\n    string partNumber;\r\n    string serialNumber;\r\n    address productOnwer;\r\n    uint32 cost;\r\n    uint32 mfgTimeStamp;\r\n  }\r\n\r\n    mapping (uint32 => Product) public products;\r\n\r\n    struct Participant {\r\n      string userName;\r\n      string password;\r\n      string participantType;\r\n      address participantAddress;\r\n    }\r\n\r\n    mapping (uint32 => Participant) public participants;\r\n\r\n    struct Registration {\r\n      uint32 productId;\r\n      uint32 ownerId;\r\n      uint32 trxTimeStamp;\r\n      address productOwner;\r\n    }\r\n\r\n    mapping (uint32 => Registration) public registrations;\r\n\r\n    event Transfer(uint32 productId);\r\n\r\n    mapping (uint32 => uint32[]) public productTrack;\r\n\r\n    modifier onlyOwner(uint32 _productId) {\r\n      require(msg.sender == products[_productId].productOnwer );\r\n      _;\r\n    }\r\n\r\n    //function getRegistrationDetails returns the attributes of the specified registration\r\n    function getRegistrationDetails(uint32 _regId) public view returns (uint32, uint32, address, uint32) {\r\n      Registration memory registration = registrations[_regId];\r\n      return (registration.productId, registration.ownerId, registration.productOwner, registration.trxTimeStamp);\r\n    }\r\n\r\n    //Function getProductTrack returns the registration history for a specified product\r\n    function getProductTrack(uint32 _prodId) external view returns (uint32[] memory) {\r\n      return productTrack[_prodId];\r\n    }\r\n\r\n    //Transfer to Owner function records movement along the Supply Chain. This function transfers ownership of a specified product from one supply chain participant to naother\r\n    function transferToOwner(uint32 _user2Id, uint32 _prodId) onlyOwner(_prodId)public returns (bool) {\r\n      //Participant memory part1 = participants[_user1Id];\r\n      Participant memory part2 = participants[_user2Id];\r\n      uint32 registration_id = r_id++;\r\n      registrations[registration_id] = Registration(_prodId, _user2Id, uint32(now),part2.participantAddress);\r\n\r\n      products[_prodId].productOnwer = part2.participantAddress;\r\n      productTrack[_prodId].push(registration_id);\r\n      emit Transfer(_prodId);\r\n\r\n      return (true);\r\n    }\r\n\r\n\r\n    //createParticipant Function increments participantID, creates a new participant and sets its attributes to the passed in parameters\r\n    function createParticipants(string memory _name, string memory _pass, address _pAdd, string memory _pType) public returns (uint32) {\r\n      uint32 userId = u_id++;\r\n      participants[userId] = Participant(_name, _pass, _pType, _pAdd);\r\n      return userId;\r\n    }\r\n\r\n    //Function getParticipantsDetails function returns the attributes of the specified participant\r\n    function getParticipantsDetails(uint32 _p_id) public view returns (string memory, address, string memory) {\r\n      return (participants[_p_id].userName, participants[_p_id].participantAddress, participants[_p_id].participantType);\r\n    }\r\n\r\n\r\n    //Function createProduct increments the Product ID, creates a new product and sets its attributes to the passed in _value\r\n    function createProduct(uint32 _ownerId, string memory _modelNumber, string memory _partNumber, string memory _serialNumber, uint32 _productCost) public returns (uint32) {\r\n      //In Solidity, you Cannot directly comare strings || you have to 1st calculate a hash value of the string and them compare that number ot the hash value of another strong & keccak256 function to calculate hashes\r\n      if(keccak256(abi.encodePacked(participants[_ownerId].participantType)) == keccak256(\"Manufacturer\")) {\r\n        uint32 productId = p_id++;\r\n        products[productId] = Product(_modelNumber, _partNumber, _serialNumber, participants[_ownerId].participantAddress, _productCost, uint32(now));\r\n        return productId;\r\n      }\r\n      return 0;\r\n    }\r\n\r\n    //Function getProductDetails returns the attributes of the specified product\r\n    function getProductDetails(uint32 _productId) public view returns (string memory , string memory, string memory, uint32, address , uint32) {\r\n      return (products[_productId].modelNumber, products[_productId].partNumber, products[_productId].serialNumber, products[_productId].cost, products[_productId].productOnwer, products[_productId].mfgTimeStamp);\r\n    }\r\n\r\n\r\n\r\n\r\n\r\n}\r\n",
  "sourcePath": "C:\\Users\\Hp\\Documents\\Projects\\SupplyChain\\contracts\\SupplyChain.sol",
  "compiler": {
    "name": "solc",
    "version": "0.5.16+commit.9c3226ce.Emscripten.clang"
  },
  "schemaVersion": "3.4.3",
  "updatedAt": "2022-01-26T09:00:34.860Z",
  "networkType": "ethereum",
  "devdoc": {
    "methods": {}
  },
  "userdoc": {
    "methods": {}
  }
}